{
  "_format": "hh-sol-artifact-1",
  "contractName": "SimpleSwap",
  "sourceName": "contracts/SimpleSwap.sol",
  "abi": [
    {
      "inputs": [
        {
          "internalType": "address",
          "name": "_tokenA",
          "type": "address"
        },
        {
          "internalType": "address",
          "name": "_tokenB",
          "type": "address"
        }
      ],
      "stateMutability": "nonpayable",
      "type": "constructor"
    },
    {
      "anonymous": false,
      "inputs": [
        {
          "indexed": true,
          "internalType": "address",
          "name": "sender",
          "type": "address"
        },
        {
          "indexed": false,
          "internalType": "uint256",
          "name": "amountA",
          "type": "uint256"
        },
        {
          "indexed": false,
          "internalType": "uint256",
          "name": "amountB",
          "type": "uint256"
        },
        {
          "indexed": false,
          "internalType": "uint256",
          "name": "liquidity",
          "type": "uint256"
        }
      ],
      "name": "AddLiquidity",
      "type": "event"
    },
    {
      "anonymous": false,
      "inputs": [
        {
          "indexed": true,
          "internalType": "address",
          "name": "owner",
          "type": "address"
        },
        {
          "indexed": true,
          "internalType": "address",
          "name": "spender",
          "type": "address"
        },
        {
          "indexed": false,
          "internalType": "uint256",
          "name": "value",
          "type": "uint256"
        }
      ],
      "name": "Approval",
      "type": "event"
    },
    {
      "anonymous": false,
      "inputs": [
        {
          "indexed": true,
          "internalType": "address",
          "name": "sender",
          "type": "address"
        },
        {
          "indexed": false,
          "internalType": "uint256",
          "name": "amountA",
          "type": "uint256"
        },
        {
          "indexed": false,
          "internalType": "uint256",
          "name": "amountB",
          "type": "uint256"
        },
        {
          "indexed": false,
          "internalType": "uint256",
          "name": "liquidity",
          "type": "uint256"
        }
      ],
      "name": "RemoveLiquidity",
      "type": "event"
    },
    {
      "anonymous": false,
      "inputs": [
        {
          "indexed": true,
          "internalType": "address",
          "name": "sender",
          "type": "address"
        },
        {
          "indexed": true,
          "internalType": "address",
          "name": "tokenIn",
          "type": "address"
        },
        {
          "indexed": true,
          "internalType": "address",
          "name": "tokenOut",
          "type": "address"
        },
        {
          "indexed": false,
          "internalType": "uint256",
          "name": "amountIn",
          "type": "uint256"
        },
        {
          "indexed": false,
          "internalType": "uint256",
          "name": "amountOut",
          "type": "uint256"
        }
      ],
      "name": "Swap",
      "type": "event"
    },
    {
      "anonymous": false,
      "inputs": [
        {
          "indexed": true,
          "internalType": "address",
          "name": "from",
          "type": "address"
        },
        {
          "indexed": true,
          "internalType": "address",
          "name": "to",
          "type": "address"
        },
        {
          "indexed": false,
          "internalType": "uint256",
          "name": "value",
          "type": "uint256"
        }
      ],
      "name": "Transfer",
      "type": "event"
    },
    {
      "inputs": [],
      "name": "MINIMUM_LIQUIDITY",
      "outputs": [
        {
          "internalType": "uint256",
          "name": "",
          "type": "uint256"
        }
      ],
      "stateMutability": "view",
      "type": "function"
    },
    {
      "inputs": [
        {
          "internalType": "uint256",
          "name": "amountAIn",
          "type": "uint256"
        },
        {
          "internalType": "uint256",
          "name": "amountBIn",
          "type": "uint256"
        }
      ],
      "name": "addLiquidity",
      "outputs": [
        {
          "internalType": "uint256",
          "name": "amountA",
          "type": "uint256"
        },
        {
          "internalType": "uint256",
          "name": "amountB",
          "type": "uint256"
        },
        {
          "internalType": "uint256",
          "name": "liquidity",
          "type": "uint256"
        }
      ],
      "stateMutability": "nonpayable",
      "type": "function"
    },
    {
      "inputs": [
        {
          "internalType": "address",
          "name": "owner",
          "type": "address"
        },
        {
          "internalType": "address",
          "name": "spender",
          "type": "address"
        }
      ],
      "name": "allowance",
      "outputs": [
        {
          "internalType": "uint256",
          "name": "",
          "type": "uint256"
        }
      ],
      "stateMutability": "view",
      "type": "function"
    },
    {
      "inputs": [
        {
          "internalType": "address",
          "name": "spender",
          "type": "address"
        },
        {
          "internalType": "uint256",
          "name": "amount",
          "type": "uint256"
        }
      ],
      "name": "approve",
      "outputs": [
        {
          "internalType": "bool",
          "name": "",
          "type": "bool"
        }
      ],
      "stateMutability": "nonpayable",
      "type": "function"
    },
    {
      "inputs": [
        {
          "internalType": "address",
          "name": "account",
          "type": "address"
        }
      ],
      "name": "balanceOf",
      "outputs": [
        {
          "internalType": "uint256",
          "name": "",
          "type": "uint256"
        }
      ],
      "stateMutability": "view",
      "type": "function"
    },
    {
      "inputs": [],
      "name": "decimals",
      "outputs": [
        {
          "internalType": "uint8",
          "name": "",
          "type": "uint8"
        }
      ],
      "stateMutability": "view",
      "type": "function"
    },
    {
      "inputs": [
        {
          "internalType": "address",
          "name": "spender",
          "type": "address"
        },
        {
          "internalType": "uint256",
          "name": "subtractedValue",
          "type": "uint256"
        }
      ],
      "name": "decreaseAllowance",
      "outputs": [
        {
          "internalType": "bool",
          "name": "",
          "type": "bool"
        }
      ],
      "stateMutability": "nonpayable",
      "type": "function"
    },
    {
      "inputs": [],
      "name": "getReserves",
      "outputs": [
        {
          "internalType": "uint256",
          "name": "reserveA",
          "type": "uint256"
        },
        {
          "internalType": "uint256",
          "name": "reserveB",
          "type": "uint256"
        }
      ],
      "stateMutability": "view",
      "type": "function"
    },
    {
      "inputs": [],
      "name": "getTokenA",
      "outputs": [
        {
          "internalType": "address",
          "name": "tokenA",
          "type": "address"
        }
      ],
      "stateMutability": "view",
      "type": "function"
    },
    {
      "inputs": [],
      "name": "getTokenB",
      "outputs": [
        {
          "internalType": "address",
          "name": "tokenB",
          "type": "address"
        }
      ],
      "stateMutability": "view",
      "type": "function"
    },
    {
      "inputs": [
        {
          "internalType": "address",
          "name": "spender",
          "type": "address"
        },
        {
          "internalType": "uint256",
          "name": "addedValue",
          "type": "uint256"
        }
      ],
      "name": "increaseAllowance",
      "outputs": [
        {
          "internalType": "bool",
          "name": "",
          "type": "bool"
        }
      ],
      "stateMutability": "nonpayable",
      "type": "function"
    },
    {
      "inputs": [],
      "name": "name",
      "outputs": [
        {
          "internalType": "string",
          "name": "",
          "type": "string"
        }
      ],
      "stateMutability": "view",
      "type": "function"
    },
    {
      "inputs": [
        {
          "internalType": "uint256",
          "name": "liquidity",
          "type": "uint256"
        }
      ],
      "name": "removeLiquidity",
      "outputs": [
        {
          "internalType": "uint256",
          "name": "amountA",
          "type": "uint256"
        },
        {
          "internalType": "uint256",
          "name": "amountB",
          "type": "uint256"
        }
      ],
      "stateMutability": "nonpayable",
      "type": "function"
    },
    {
      "inputs": [
        {
          "internalType": "address",
          "name": "tokenIn",
          "type": "address"
        },
        {
          "internalType": "address",
          "name": "tokenOut",
          "type": "address"
        },
        {
          "internalType": "uint256",
          "name": "amountIn",
          "type": "uint256"
        }
      ],
      "name": "swap",
      "outputs": [
        {
          "internalType": "uint256",
          "name": "amountOut",
          "type": "uint256"
        }
      ],
      "stateMutability": "nonpayable",
      "type": "function"
    },
    {
      "inputs": [],
      "name": "symbol",
      "outputs": [
        {
          "internalType": "string",
          "name": "",
          "type": "string"
        }
      ],
      "stateMutability": "view",
      "type": "function"
    },
    {
      "inputs": [],
      "name": "token0",
      "outputs": [
        {
          "internalType": "address",
          "name": "",
          "type": "address"
        }
      ],
      "stateMutability": "view",
      "type": "function"
    },
    {
      "inputs": [],
      "name": "token1",
      "outputs": [
        {
          "internalType": "address",
          "name": "",
          "type": "address"
        }
      ],
      "stateMutability": "view",
      "type": "function"
    },
    {
      "inputs": [],
      "name": "totalSupply",
      "outputs": [
        {
          "internalType": "uint256",
          "name": "",
          "type": "uint256"
        }
      ],
      "stateMutability": "view",
      "type": "function"
    },
    {
      "inputs": [
        {
          "internalType": "address",
          "name": "to",
          "type": "address"
        },
        {
          "internalType": "uint256",
          "name": "amount",
          "type": "uint256"
        }
      ],
      "name": "transfer",
      "outputs": [
        {
          "internalType": "bool",
          "name": "",
          "type": "bool"
        }
      ],
      "stateMutability": "nonpayable",
      "type": "function"
    },
    {
      "inputs": [
        {
          "internalType": "address",
          "name": "from",
          "type": "address"
        },
        {
          "internalType": "address",
          "name": "to",
          "type": "address"
        },
        {
          "internalType": "uint256",
          "name": "amount",
          "type": "uint256"
        }
      ],
      "name": "transferFrom",
      "outputs": [
        {
          "internalType": "bool",
          "name": "",
          "type": "bool"
        }
      ],
      "stateMutability": "nonpayable",
      "type": "function"
    }
  ],
  "bytecode": "0x60806040523480156200001157600080fd5b5060405162001b8c38038062001b8c833981016040819052620000349162000349565b6040518060400160405280600a815260200169053696d706c65537761760b41b81525060405180604001604052806004815260200163053534c560e41b815250816003908162000085919062000426565b50600462000094828262000426565b5050506000826001600160a01b03163b11620001025760405162461bcd60e51b815260206004820152602260248201527f53696d706c65537761703a20544f4b454e415f49535f4e4f545f434f4e54524160448201526110d560f21b60648201526084015b60405180910390fd5b6000816001600160a01b03163b11620001695760405162461bcd60e51b815260206004820152602260248201527f53696d706c65537761703a20544f4b454e425f49535f4e4f545f434f4e54524160448201526110d560f21b6064820152608401620000f9565b806001600160a01b0316826001600160a01b031603620001e05760405162461bcd60e51b815260206004820152602b60248201527f53696d706c65537761703a20544f4b454e415f544f4b454e425f4944454e544960448201526a43414c5f4144445245535360a81b6064820152608401620000f9565b620001f782826200022f60201b62000c341760201c565b600680546001600160a01b039283166001600160a01b0319918216179091556005805493909216921691909117905550620004f29050565b600080826001600160a01b0316846001600160a01b031603620002a35760405162461bcd60e51b815260206004820152602560248201527f556e697377617056324c6962726172793a204944454e544943414c5f41444452604482015264455353455360d81b6064820152608401620000f9565b826001600160a01b0316846001600160a01b031610620002c5578284620002c8565b83835b90925090506001600160a01b038216620003255760405162461bcd60e51b815260206004820152601e60248201527f556e697377617056324c6962726172793a205a45524f5f4144445245535300006044820152606401620000f9565b9250929050565b80516001600160a01b03811681146200034457600080fd5b919050565b600080604083850312156200035d57600080fd5b62000368836200032c565b915062000378602084016200032c565b90509250929050565b634e487b7160e01b600052604160045260246000fd5b600181811c90821680620003ac57607f821691505b602082108103620003cd57634e487b7160e01b600052602260045260246000fd5b50919050565b601f8211156200042157600081815260208120601f850160051c81016020861015620003fc5750805b601f850160051c820191505b818110156200041d5782815560010162000408565b5050505b505050565b81516001600160401b0381111562000442576200044262000381565b6200045a8162000453845462000397565b84620003d3565b602080601f831160018114620004925760008415620004795750858301515b600019600386901b1c1916600185901b1785556200041d565b600085815260208120601f198616915b82811015620004c357888601518255948401946001909101908401620004a2565b5085821015620004e25787850151600019600388901b60f8161c191681555b5050505050600190811b01905550565b61168a80620005026000396000f3fe608060405234801561001057600080fd5b506004361061012c5760003560e01c806395d89b41116100ad578063ae0ba2fb11610071578063ae0ba2fb1461029e578063ba9a7a56146102af578063d21220a7146102b7578063dd62ed3e146102ca578063df791e50146102dd57600080fd5b806395d89b411461022f5780639c8f9f23146102375780639cd441da1461024a578063a457c2d714610278578063a9059cbb1461028b57600080fd5b806318160ddd116100f457806318160ddd146101bf57806323b872dd146101d1578063313ce567146101e457806339509351146101f357806370a082311461020657600080fd5b806306fdde03146101315780630902f1ac1461014f578063095ea7b31461016b5780630dfe16811461018e5780630f0148ea146101ae575b600080fd5b6101396102f4565b6040516101469190611366565b60405180910390f35b6007546008545b60408051928352602083019190915201610146565b61017e6101793660046113cb565b610386565b6040519015158152602001610146565b6005546101a1906001600160a01b031681565b60405161014691906113f5565b6006546001600160a01b03166101a1565b6002545b604051908152602001610146565b61017e6101df366004611409565b6103a0565b60405160128152602001610146565b61017e6102013660046113cb565b6103c4565b6101c3610214366004611445565b6001600160a01b031660009081526020819052604090205490565b6101396103e6565b610156610245366004611460565b6103f5565b61025d610258366004611479565b61074f565b60408051938452602084019290925290820152606001610146565b61017e6102863660046113cb565b610b80565b61017e6102993660046113cb565b610bfb565b6005546001600160a01b03166101a1565b6101c3600081565b6006546101a1906001600160a01b031681565b6101c36102d836600461149b565b610c09565b6101c36102eb366004611409565b60009392505050565b606060038054610303906114ce565b80601f016020809104026020016040519081016040528092919081815260200182805461032f906114ce565b801561037c5780601f106103515761010080835404028352916020019161037c565b820191906000526020600020905b81548152906001019060200180831161035f57829003601f168201915b5050505050905090565b600033610394818585610d2b565b60019150505b92915050565b6000336103ae858285610e50565b6103b9858585610eca565b506001949350505050565b6000336103948185856103d78383610c09565b6103e19190611518565b610d2b565b606060048054610303906114ce565b6000806000831161045f5760405162461bcd60e51b815260206004820152602960248201527f53696d706c65537761703a20494e53554646494349454e545f4c495155494449604482015268151657d0955493915160ba1b60648201526084015b60405180910390fd5b61046a333085610eca565b600061047560025490565b90508061048d6007548661105c90919063ffffffff16565b610497919061152b565b9250806104af6008548661105c90919063ffffffff16565b6104b9919061152b565b91506000831180156104cb5750600082115b6105285760405162461bcd60e51b815260206004820152602860248201527f556e697377617056323a20494e53554646494349454e545f4c495155494449546044820152671657d0955493915160c21b6064820152608401610456565b61053230856110c3565b60055460405163a9059cbb60e01b81526001600160a01b039091169063a9059cbb90610564903390879060040161154d565b6020604051808303816000875af1158015610583573d6000803e3d6000fd5b505050506040513d601f19601f820116820180604052508101906105a79190611566565b5060065460405163a9059cbb60e01b81526001600160a01b039091169063a9059cbb906105da903390869060040161154d565b6020604051808303816000875af11580156105f9573d6000803e3d6000fd5b505050506040513d601f19601f8201168201806040525081019061061d9190611566565b506005546040516370a0823160e01b81526001600160a01b03909116906370a082319061064e9030906004016113f5565b602060405180830381865afa15801561066b573d6000803e3d6000fd5b505050506040513d601f19601f8201168201806040525081019061068f9190611588565b6007556006546040516370a0823160e01b81526001600160a01b03909116906370a08231906106c29030906004016113f5565b602060405180830381865afa1580156106df573d6000803e3d6000fd5b505050506040513d601f19601f820116820180604052508101906107039190611588565b600855604080518481526020810184905290810185905233907f59c3a0b60c6ab7deb62e1440c9e72441db6db7dfe514dba8cb18e60c0d896efa9060600160405180910390a250915091565b6000806000846000036107745760405162461bcd60e51b8152600401610456906115a1565b836000036107945760405162461bcd60e51b8152600401610456906115a1565b6005546040516323b872dd60e01b81526001600160a01b03909116906323b872dd906107c890339030908a906004016115e6565b6020604051808303816000875af11580156107e7573d6000803e3d6000fd5b505050506040513d601f19601f8201168201806040525081019061080b9190611566565b506006546040516323b872dd60e01b81526001600160a01b03909116906323b872dd90610840903390309089906004016115e6565b6020604051808303816000875af115801561085f573d6000803e3d6000fd5b505050506040513d601f19601f820116820180604052508101906108839190611566565b50600061088f60025490565b9050806000036108c3576108b660006108b06108ab898961105c565b6111db565b9061124b565b9150859350849250610a43565b6007546108fa906108d4888461105c565b6108de919061152b565b6008546108eb888561105c565b6108f5919061152b565b6112a1565b9150806007548361090b919061160a565b610915919061152b565b9350838611156109a1576005546001600160a01b031663a9059cbb3361093b878a611621565b6040518363ffffffff1660e01b815260040161095892919061154d565b6020604051808303816000875af1158015610977573d6000803e3d6000fd5b505050506040513d601f19601f8201168201806040525081019061099b9190611566565b50610a43565b82851115610a435780600854836109b8919061160a565b6109c2919061152b565b6006549093506001600160a01b031663a9059cbb336109e18689611621565b6040518363ffffffff1660e01b81526004016109fe92919061154d565b6020604051808303816000875af1158015610a1d573d6000803e3d6000fd5b505050506040513d601f19601f82011682018060405250810190610a419190611566565b505b610a4d33836112b9565b6005546040516370a0823160e01b81526001600160a01b03909116906370a0823190610a7d9030906004016113f5565b602060405180830381865afa158015610a9a573d6000803e3d6000fd5b505050506040513d601f19601f82011682018060405250810190610abe9190611588565b6007556006546040516370a0823160e01b81526001600160a01b03909116906370a0823190610af19030906004016113f5565b602060405180830381865afa158015610b0e573d6000803e3d6000fd5b505050506040513d601f19601f82011682018060405250810190610b329190611588565b600855604080518581526020810185905290810183905233907fbeb3885786d637a474cbc287c0a44587231633a077f0bd30354d5a4b18996fce9060600160405180910390a2509250925092565b60003381610b8e8286610c09565b905083811015610bee5760405162461bcd60e51b815260206004820152602560248201527f45524332303a2064656372656173656420616c6c6f77616e63652062656c6f77604482015264207a65726f60d81b6064820152608401610456565b6103b98286868403610d2b565b600033610394818585610eca565b6001600160a01b03918216600090815260016020908152604080832093909416825291909152205490565b600080826001600160a01b0316846001600160a01b031603610ca65760405162461bcd60e51b815260206004820152602560248201527f556e697377617056324c6962726172793a204944454e544943414c5f41444452604482015264455353455360d81b6064820152608401610456565b826001600160a01b0316846001600160a01b031610610cc6578284610cc9565b83835b90925090506001600160a01b038216610d245760405162461bcd60e51b815260206004820152601e60248201527f556e697377617056324c6962726172793a205a45524f5f4144445245535300006044820152606401610456565b9250929050565b6001600160a01b038316610d8d5760405162461bcd60e51b8152602060048201526024808201527f45524332303a20617070726f76652066726f6d20746865207a65726f206164646044820152637265737360e01b6064820152608401610456565b6001600160a01b038216610dee5760405162461bcd60e51b815260206004820152602260248201527f45524332303a20617070726f766520746f20746865207a65726f206164647265604482015261737360f01b6064820152608401610456565b6001600160a01b0383811660008181526001602090815260408083209487168084529482529182902085905590518481527f8c5be1e5ebec7d5bd14f71427d1e84f3dd0314c0f7b2291e5b200ac8c7c3b92591015b60405180910390a3505050565b6000610e5c8484610c09565b90506000198114610ec45781811015610eb75760405162461bcd60e51b815260206004820152601d60248201527f45524332303a20696e73756666696369656e7420616c6c6f77616e63650000006044820152606401610456565b610ec48484848403610d2b565b50505050565b6001600160a01b038316610f2e5760405162461bcd60e51b815260206004820152602560248201527f45524332303a207472616e736665722066726f6d20746865207a65726f206164604482015264647265737360d81b6064820152608401610456565b6001600160a01b038216610f905760405162461bcd60e51b815260206004820152602360248201527f45524332303a207472616e7366657220746f20746865207a65726f206164647260448201526265737360e81b6064820152608401610456565b6001600160a01b038316600090815260208190526040902054818110156110085760405162461bcd60e51b815260206004820152602660248201527f45524332303a207472616e7366657220616d6f756e7420657863656564732062604482015265616c616e636560d01b6064820152608401610456565b6001600160a01b0384811660008181526020818152604080832087870390559387168083529184902080548701905592518581529092600080516020611635833981519152910160405180910390a3610ec4565b600081158061108057508282611072818361160a565b925061107e908361152b565b145b61039a5760405162461bcd60e51b815260206004820152601460248201527364732d6d6174682d6d756c2d6f766572666c6f7760601b6044820152606401610456565b6001600160a01b0382166111235760405162461bcd60e51b815260206004820152602160248201527f45524332303a206275726e2066726f6d20746865207a65726f206164647265736044820152607360f81b6064820152608401610456565b6001600160a01b038216600090815260208190526040902054818110156111975760405162461bcd60e51b815260206004820152602260248201527f45524332303a206275726e20616d6f756e7420657863656564732062616c616e604482015261636560f01b6064820152608401610456565b6001600160a01b0383166000818152602081815260408083208686039055600280548790039055518581529192916000805160206116358339815191529101610e43565b6000600382111561123c57508060006111f560028361152b565b611200906001611518565b90505b818110156112365790508060028161121b818661152b565b6112259190611518565b61122f919061152b565b9050611203565b50919050565b8115611246575060015b919050565b6000826112588382611621565b915081111561039a5760405162461bcd60e51b815260206004820152601560248201527464732d6d6174682d7375622d756e646572666c6f7760581b6044820152606401610456565b60008183106112b057816112b2565b825b9392505050565b6001600160a01b03821661130f5760405162461bcd60e51b815260206004820152601f60248201527f45524332303a206d696e7420746f20746865207a65726f2061646472657373006044820152606401610456565b80600260008282546113219190611518565b90915550506001600160a01b03821660008181526020818152604080832080548601905551848152600080516020611635833981519152910160405180910390a35050565b600060208083528351808285015260005b8181101561139357858101830151858201604001528201611377565b506000604082860101526040601f19601f8301168501019250505092915050565b80356001600160a01b038116811461124657600080fd5b600080604083850312156113de57600080fd5b6113e7836113b4565b946020939093013593505050565b6001600160a01b0391909116815260200190565b60008060006060848603121561141e57600080fd5b611427846113b4565b9250611435602085016113b4565b9150604084013590509250925092565b60006020828403121561145757600080fd5b6112b2826113b4565b60006020828403121561147257600080fd5b5035919050565b6000806040838503121561148c57600080fd5b50508035926020909101359150565b600080604083850312156114ae57600080fd5b6114b7836113b4565b91506114c5602084016113b4565b90509250929050565b600181811c908216806114e257607f821691505b60208210810361123657634e487b7160e01b600052602260045260246000fd5b634e487b7160e01b600052601160045260246000fd5b8082018082111561039a5761039a611502565b60008261154857634e487b7160e01b600052601260045260246000fd5b500490565b6001600160a01b03929092168252602082015260400190565b60006020828403121561157857600080fd5b815180151581146112b257600080fd5b60006020828403121561159a57600080fd5b5051919050565b60208082526025908201527f53696d706c65537761703a20494e53554646494349454e545f494e5055545f416040820152641353d5539560da1b606082015260800190565b6001600160a01b039384168152919092166020820152604081019190915260600190565b808202811582820484141761039a5761039a611502565b8181038181111561039a5761039a61150256feddf252ad1be2c89b69c2b068fc378daa952ba7f163c4a11628f55a4df523b3efa2646970667358221220f82383ca3ea6f3dfc3236016125559b9fca547c9424197c895d47fd25a56c87064736f6c63430008110033",
  "linkReferences": {},
  "deployedLinkReferences": {}
}